{
  "_format": "hh-sol-artifact-1",
  "contractName": "Token",
  "sourceName": "contracts/Token.sol",
  "abi": [
    {
      "inputs": [],
      "stateMutability": "nonpayable",
      "type": "constructor"
    },
    {
      "anonymous": false,
      "inputs": [
        {
          "indexed": true,
          "internalType": "address",
          "name": "account",
          "type": "address"
        },
        {
          "indexed": true,
          "internalType": "address",
          "name": "operator",
          "type": "address"
        },
        {
          "indexed": false,
          "internalType": "bool",
          "name": "approved",
          "type": "bool"
        }
      ],
      "name": "ApprovalForAll",
      "type": "event"
    },
    {
      "anonymous": false,
      "inputs": [
        {
          "indexed": true,
          "internalType": "bytes32",
          "name": "role",
          "type": "bytes32"
        },
        {
          "indexed": true,
          "internalType": "bytes32",
          "name": "previousAdminRole",
          "type": "bytes32"
        },
        {
          "indexed": true,
          "internalType": "bytes32",
          "name": "newAdminRole",
          "type": "bytes32"
        }
      ],
      "name": "RoleAdminChanged",
      "type": "event"
    },
    {
      "anonymous": false,
      "inputs": [
        {
          "indexed": true,
          "internalType": "bytes32",
          "name": "role",
          "type": "bytes32"
        },
        {
          "indexed": true,
          "internalType": "address",
          "name": "account",
          "type": "address"
        },
        {
          "indexed": true,
          "internalType": "address",
          "name": "sender",
          "type": "address"
        }
      ],
      "name": "RoleGranted",
      "type": "event"
    },
    {
      "anonymous": false,
      "inputs": [
        {
          "indexed": true,
          "internalType": "bytes32",
          "name": "role",
          "type": "bytes32"
        },
        {
          "indexed": true,
          "internalType": "address",
          "name": "account",
          "type": "address"
        },
        {
          "indexed": true,
          "internalType": "address",
          "name": "sender",
          "type": "address"
        }
      ],
      "name": "RoleRevoked",
      "type": "event"
    },
    {
      "anonymous": false,
      "inputs": [
        {
          "indexed": true,
          "internalType": "address",
          "name": "operator",
          "type": "address"
        },
        {
          "indexed": true,
          "internalType": "address",
          "name": "from",
          "type": "address"
        },
        {
          "indexed": true,
          "internalType": "address",
          "name": "to",
          "type": "address"
        },
        {
          "indexed": false,
          "internalType": "uint256[]",
          "name": "ids",
          "type": "uint256[]"
        },
        {
          "indexed": false,
          "internalType": "uint256[]",
          "name": "values",
          "type": "uint256[]"
        }
      ],
      "name": "TransferBatch",
      "type": "event"
    },
    {
      "anonymous": false,
      "inputs": [
        {
          "indexed": true,
          "internalType": "address",
          "name": "operator",
          "type": "address"
        },
        {
          "indexed": true,
          "internalType": "address",
          "name": "from",
          "type": "address"
        },
        {
          "indexed": true,
          "internalType": "address",
          "name": "to",
          "type": "address"
        },
        {
          "indexed": false,
          "internalType": "uint256",
          "name": "id",
          "type": "uint256"
        },
        {
          "indexed": false,
          "internalType": "uint256",
          "name": "value",
          "type": "uint256"
        }
      ],
      "name": "TransferSingle",
      "type": "event"
    },
    {
      "anonymous": false,
      "inputs": [
        {
          "indexed": false,
          "internalType": "string",
          "name": "value",
          "type": "string"
        },
        {
          "indexed": true,
          "internalType": "uint256",
          "name": "id",
          "type": "uint256"
        }
      ],
      "name": "URI",
      "type": "event"
    },
    {
      "inputs": [],
      "name": "DEFAULT_ADMIN_ROLE",
      "outputs": [
        {
          "internalType": "bytes32",
          "name": "",
          "type": "bytes32"
        }
      ],
      "stateMutability": "view",
      "type": "function"
    },
    {
      "inputs": [
        {
          "internalType": "address",
          "name": "account",
          "type": "address"
        },
        {
          "internalType": "uint256",
          "name": "id",
          "type": "uint256"
        }
      ],
      "name": "balanceOf",
      "outputs": [
        {
          "internalType": "uint256",
          "name": "",
          "type": "uint256"
        }
      ],
      "stateMutability": "view",
      "type": "function"
    },
    {
      "inputs": [
        {
          "internalType": "address[]",
          "name": "accounts",
          "type": "address[]"
        },
        {
          "internalType": "uint256[]",
          "name": "ids",
          "type": "uint256[]"
        }
      ],
      "name": "balanceOfBatch",
      "outputs": [
        {
          "internalType": "uint256[]",
          "name": "",
          "type": "uint256[]"
        }
      ],
      "stateMutability": "view",
      "type": "function"
    },
    {
      "inputs": [
        {
          "internalType": "bytes32",
          "name": "role",
          "type": "bytes32"
        }
      ],
      "name": "getRoleAdmin",
      "outputs": [
        {
          "internalType": "bytes32",
          "name": "",
          "type": "bytes32"
        }
      ],
      "stateMutability": "view",
      "type": "function"
    },
    {
      "inputs": [
        {
          "internalType": "bytes32",
          "name": "role",
          "type": "bytes32"
        },
        {
          "internalType": "address",
          "name": "account",
          "type": "address"
        }
      ],
      "name": "grantRole",
      "outputs": [],
      "stateMutability": "nonpayable",
      "type": "function"
    },
    {
      "inputs": [
        {
          "internalType": "bytes32",
          "name": "role",
          "type": "bytes32"
        },
        {
          "internalType": "address",
          "name": "account",
          "type": "address"
        }
      ],
      "name": "hasRole",
      "outputs": [
        {
          "internalType": "bool",
          "name": "",
          "type": "bool"
        }
      ],
      "stateMutability": "view",
      "type": "function"
    },
    {
      "inputs": [
        {
          "internalType": "address",
          "name": "account",
          "type": "address"
        },
        {
          "internalType": "address",
          "name": "operator",
          "type": "address"
        }
      ],
      "name": "isApprovedForAll",
      "outputs": [
        {
          "internalType": "bool",
          "name": "",
          "type": "bool"
        }
      ],
      "stateMutability": "view",
      "type": "function"
    },
    {
      "inputs": [
        {
          "internalType": "uint256",
          "name": "id",
          "type": "uint256"
        },
        {
          "internalType": "uint256",
          "name": "amount",
          "type": "uint256"
        },
        {
          "internalType": "string",
          "name": "_tokenURIs",
          "type": "string"
        }
      ],
      "name": "mint",
      "outputs": [],
      "stateMutability": "nonpayable",
      "type": "function"
    },
    {
      "inputs": [
        {
          "internalType": "bytes32",
          "name": "role",
          "type": "bytes32"
        },
        {
          "internalType": "address",
          "name": "account",
          "type": "address"
        }
      ],
      "name": "renounceRole",
      "outputs": [],
      "stateMutability": "nonpayable",
      "type": "function"
    },
    {
      "inputs": [
        {
          "internalType": "bytes32",
          "name": "role",
          "type": "bytes32"
        },
        {
          "internalType": "address",
          "name": "account",
          "type": "address"
        }
      ],
      "name": "revokeRole",
      "outputs": [],
      "stateMutability": "nonpayable",
      "type": "function"
    },
    {
      "inputs": [
        {
          "internalType": "address",
          "name": "from",
          "type": "address"
        },
        {
          "internalType": "address",
          "name": "to",
          "type": "address"
        },
        {
          "internalType": "uint256[]",
          "name": "ids",
          "type": "uint256[]"
        },
        {
          "internalType": "uint256[]",
          "name": "amounts",
          "type": "uint256[]"
        },
        {
          "internalType": "bytes",
          "name": "data",
          "type": "bytes"
        }
      ],
      "name": "safeBatchTransferFrom",
      "outputs": [],
      "stateMutability": "nonpayable",
      "type": "function"
    },
    {
      "inputs": [
        {
          "internalType": "address",
          "name": "from",
          "type": "address"
        },
        {
          "internalType": "address",
          "name": "to",
          "type": "address"
        },
        {
          "internalType": "uint256",
          "name": "id",
          "type": "uint256"
        },
        {
          "internalType": "uint256",
          "name": "amount",
          "type": "uint256"
        },
        {
          "internalType": "bytes",
          "name": "data",
          "type": "bytes"
        }
      ],
      "name": "safeTransferFrom",
      "outputs": [],
      "stateMutability": "nonpayable",
      "type": "function"
    },
    {
      "inputs": [
        {
          "internalType": "address",
          "name": "operator",
          "type": "address"
        },
        {
          "internalType": "bool",
          "name": "approved",
          "type": "bool"
        }
      ],
      "name": "setApprovalForAll",
      "outputs": [],
      "stateMutability": "nonpayable",
      "type": "function"
    },
    {
      "inputs": [
        {
          "internalType": "bytes4",
          "name": "interfaceId",
          "type": "bytes4"
        }
      ],
      "name": "supportsInterface",
      "outputs": [
        {
          "internalType": "bool",
          "name": "",
          "type": "bool"
        }
      ],
      "stateMutability": "view",
      "type": "function"
    },
    {
      "inputs": [
        {
          "internalType": "uint256",
          "name": "",
          "type": "uint256"
        }
      ],
      "name": "uri",
      "outputs": [
        {
          "internalType": "string",
          "name": "",
          "type": "string"
        }
      ],
      "stateMutability": "view",
      "type": "function"
    }
  ],
  "bytecode": "0x60806040523480156200001157600080fd5b506040805160208101909152600081526200002c8162000033565b506200012f565b8051620000489060029060208401906200004c565b5050565b8280546200005a90620000f2565b90600052602060002090601f0160209004810192826200007e5760008555620000c9565b82601f106200009957805160ff1916838001178555620000c9565b82800160010185558215620000c9579182015b82811115620000c9578251825591602001919060010190620000ac565b50620000d7929150620000db565b5090565b5b80821115620000d75760008155600101620000dc565b600181811c908216806200010757607f821691505b602082108114156200012957634e487b7160e01b600052602260045260246000fd5b50919050565b611c40806200013f6000396000f3fe608060405234801561001057600080fd5b50600436106100f45760003560e01c80634e1273f411610097578063c6e64e5311610066578063c6e64e531461020e578063d547741f14610221578063e985e9c514610234578063f242432a1461027057600080fd5b80634e1273f4146101c057806391d14854146101e0578063a217fddf146101f3578063a22cb465146101fb57600080fd5b8063248a9ca3116100d3578063248a9ca3146101625780632eb2c2d6146101855780632f2ff15d1461019a57806336568abe146101ad57600080fd5b8062fdd58e146100f957806301ffc9a71461011f5780630e89341c14610142575b600080fd5b61010c610107366004611568565b610283565b6040519081526020015b60405180910390f35b61013261012d36600461169f565b61031a565b6040519015158152602001610116565b610155610150366004611663565b61032b565b60405161011691906118fd565b61010c610170366004611663565b60009081526003602052604090206001015490565b61019861019336600461141d565b6103bf565b005b6101986101a836600461167c565b610456565b6101986101bb36600461167c565b610480565b6101d36101ce366004611592565b6104fe565b60405161011691906118bc565b6101326101ee36600461167c565b610628565b61010c600081565b61019861020936600461152c565b610653565b61019861021c3660046116d9565b61065e565b61019861022f36600461167c565b610683565b6101326102423660046113ea565b6001600160a01b03918216600090815260016020908152604080832093909416825291909152205460ff1690565b61019861027e3660046114c7565b6106a8565b60006001600160a01b0383166102f45760405162461bcd60e51b815260206004820152602b60248201527f455243313135353a2062616c616e636520717565727920666f7220746865207a60448201526a65726f206164647265737360a81b60648201526084015b60405180910390fd5b506000908152602081815260408083206001600160a01b03949094168352929052205490565b60006103258261072f565b92915050565b60606002805461033a90611a89565b80601f016020809104026020016040519081016040528092919081815260200182805461036690611a89565b80156103b35780601f10610388576101008083540402835291602001916103b3565b820191906000526020600020905b81548152906001019060200180831161039657829003601f168201915b50505050509050919050565b6001600160a01b0385163314806103db57506103db8533610242565b6104425760405162461bcd60e51b815260206004820152603260248201527f455243313135353a207472616e736665722063616c6c6572206973206e6f74206044820152711bdddb995c881b9bdc88185c1c1c9bdd995960721b60648201526084016102eb565b61044f8585858585610754565b5050505050565b60008281526003602052604090206001015461047181610931565b61047b838361093e565b505050565b6001600160a01b03811633146104f05760405162461bcd60e51b815260206004820152602f60248201527f416363657373436f6e74726f6c3a2063616e206f6e6c792072656e6f756e636560448201526e103937b632b9903337b91039b2b63360891b60648201526084016102eb565b6104fa82826109c4565b5050565b606081518351146105635760405162461bcd60e51b815260206004820152602960248201527f455243313135353a206163636f756e747320616e6420696473206c656e677468604482015268040dad2e6dac2e8c6d60bb1b60648201526084016102eb565b6000835167ffffffffffffffff81111561057f5761057f611b38565b6040519080825280602002602001820160405280156105a8578160200160208202803683370190505b50905060005b8451811015610620576105f38582815181106105cc576105cc611b22565b60200260200101518583815181106105e6576105e6611b22565b6020026020010151610283565b82828151811061060557610605611b22565b602090810291909101015261061981611af1565b90506105ae565b509392505050565b60009182526003602090815260408084206001600160a01b0393909316845291905290205460ff1690565b6104fa338383610a2b565b6106688382610b0c565b61047b33848460405180602001604052806000815250610b2b565b60008281526003602052604090206001015461069e81610931565b61047b83836109c4565b6001600160a01b0385163314806106c457506106c48533610242565b6107225760405162461bcd60e51b815260206004820152602960248201527f455243313135353a2063616c6c6572206973206e6f74206f776e6572206e6f7260448201526808185c1c1c9bdd995960ba1b60648201526084016102eb565b61044f8585858585610c3f565b60006001600160e01b03198216637965db0b60e01b1480610325575061032582610d69565b81518351146107b65760405162461bcd60e51b815260206004820152602860248201527f455243313135353a2069647320616e6420616d6f756e7473206c656e677468206044820152670dad2e6dac2e8c6d60c31b60648201526084016102eb565b6001600160a01b0384166107dc5760405162461bcd60e51b81526004016102eb90611958565b3360005b84518110156108c35760008582815181106107fd576107fd611b22565b60200260200101519050600085838151811061081b5761081b611b22565b602090810291909101810151600084815280835260408082206001600160a01b038e16835290935291909120549091508181101561086b5760405162461bcd60e51b81526004016102eb9061199d565b6000838152602081815260408083206001600160a01b038e8116855292528083208585039055908b168252812080548492906108a8908490611a0b565b92505081905550505050806108bc90611af1565b90506107e0565b50846001600160a01b0316866001600160a01b0316826001600160a01b03167f4a39dc06d4c0dbc64b70af90fd698a233a518aa5d07e595d983b8c0526c8f7fb87876040516109139291906118cf565b60405180910390a4610929818787878787610db9565b505050505050565b61093b8133610f24565b50565b6109488282610628565b6104fa5760008281526003602090815260408083206001600160a01b03851684529091529020805460ff191660011790556109803390565b6001600160a01b0316816001600160a01b0316837f2f8788117e7eff1d82e926ec794901d17c78024a50270940304540a733656f0d60405160405180910390a45050565b6109ce8282610628565b156104fa5760008281526003602090815260408083206001600160a01b0385168085529252808320805460ff1916905551339285917ff6391f5c32d9c69d2a47ea670b442974b53935d1edc7fd64eb21e047a839171b9190a45050565b816001600160a01b0316836001600160a01b03161415610a9f5760405162461bcd60e51b815260206004820152602960248201527f455243313135353a2073657474696e6720617070726f76616c20737461747573604482015268103337b91039b2b63360b91b60648201526084016102eb565b6001600160a01b03838116600081815260016020908152604080832094871680845294825291829020805460ff191686151590811790915591519182527f17307eab39ab6107e8899845ad3d59bd9653f200f220920489ca2b5937696c31910160405180910390a3505050565b6000828152600460209081526040909120825161047b92840190611240565b6001600160a01b038416610b8b5760405162461bcd60e51b815260206004820152602160248201527f455243313135353a206d696e7420746f20746865207a65726f206164647265736044820152607360f81b60648201526084016102eb565b336000610b9785610f88565b90506000610ba485610f88565b90506000868152602081815260408083206001600160a01b038b16845290915281208054879290610bd6908490611a0b565b909155505060408051878152602081018790526001600160a01b03808a1692600092918716917fc3d58168c5ae7397731d063d5bbf3d657854427343f4c083240f7aacaa2d0f62910160405180910390a4610c3683600089898989610fd3565b50505050505050565b6001600160a01b038416610c655760405162461bcd60e51b81526004016102eb90611958565b336000610c7185610f88565b90506000610c7e85610f88565b90506000868152602081815260408083206001600160a01b038c16845290915290205485811015610cc15760405162461bcd60e51b81526004016102eb9061199d565b6000878152602081815260408083206001600160a01b038d8116855292528083208985039055908a16825281208054889290610cfe908490611a0b565b909155505060408051888152602081018890526001600160a01b03808b16928c821692918816917fc3d58168c5ae7397731d063d5bbf3d657854427343f4c083240f7aacaa2d0f62910160405180910390a4610d5e848a8a8a8a8a610fd3565b505050505050505050565b60006001600160e01b03198216636cdb3d1360e11b1480610d9a57506001600160e01b031982166303a24d0760e21b145b8061032557506301ffc9a760e01b6001600160e01b0319831614610325565b6001600160a01b0384163b156109295760405163bc197c8160e01b81526001600160a01b0385169063bc197c8190610dfd9089908990889088908890600401611819565b602060405180830381600087803b158015610e1757600080fd5b505af1925050508015610e47575060408051601f3d908101601f19168201909252610e44918101906116bc565b60015b610ef457610e53611b4e565b806308c379a01415610e8d5750610e68611b6a565b80610e735750610e8f565b8060405162461bcd60e51b81526004016102eb91906118fd565b505b60405162461bcd60e51b815260206004820152603460248201527f455243313135353a207472616e7366657220746f206e6f6e20455243313135356044820152732932b1b2b4bb32b91034b6b83632b6b2b73a32b960611b60648201526084016102eb565b6001600160e01b0319811663bc197c8160e01b14610c365760405162461bcd60e51b81526004016102eb90611910565b610f2e8282610628565b6104fa57610f46816001600160a01b0316601461109d565b610f5183602061109d565b604051602001610f629291906117a4565b60408051601f198184030181529082905262461bcd60e51b82526102eb916004016118fd565b60408051600180825281830190925260609160009190602080830190803683370190505090508281600081518110610fc257610fc2611b22565b602090810291909101015292915050565b6001600160a01b0384163b156109295760405163f23a6e6160e01b81526001600160a01b0385169063f23a6e61906110179089908990889088908890600401611877565b602060405180830381600087803b15801561103157600080fd5b505af1925050508015611061575060408051601f3d908101601f1916820190925261105e918101906116bc565b60015b61106d57610e53611b4e565b6001600160e01b0319811663f23a6e6160e01b14610c365760405162461bcd60e51b81526004016102eb90611910565b606060006110ac836002611a23565b6110b7906002611a0b565b67ffffffffffffffff8111156110cf576110cf611b38565b6040519080825280601f01601f1916602001820160405280156110f9576020820181803683370190505b509050600360fc1b8160008151811061111457611114611b22565b60200101906001600160f81b031916908160001a905350600f60fb1b8160018151811061114357611143611b22565b60200101906001600160f81b031916908160001a9053506000611167846002611a23565b611172906001611a0b565b90505b60018111156111ea576f181899199a1a9b1b9c1cb0b131b232b360811b85600f16601081106111a6576111a6611b22565b1a60f81b8282815181106111bc576111bc611b22565b60200101906001600160f81b031916908160001a90535060049490941c936111e381611a72565b9050611175565b5083156112395760405162461bcd60e51b815260206004820181905260248201527f537472696e67733a20686578206c656e67746820696e73756666696369656e7460448201526064016102eb565b9392505050565b82805461124c90611a89565b90600052602060002090601f01602090048101928261126e57600085556112b4565b82601f1061128757805160ff19168380011785556112b4565b828001600101855582156112b4579182015b828111156112b4578251825591602001919060010190611299565b506112c09291506112c4565b5090565b5b808211156112c057600081556001016112c5565b600067ffffffffffffffff8311156112f3576112f3611b38565b60405161130a601f8501601f191660200182611ac4565b80915083815284848401111561131f57600080fd5b83836020830137600060208583010152509392505050565b80356001600160a01b038116811461134e57600080fd5b919050565b600082601f83011261136457600080fd5b81356020611371826119e7565b60405161137e8282611ac4565b8381528281019150858301600585901b8701840188101561139e57600080fd5b60005b858110156113bd578135845292840192908401906001016113a1565b5090979650505050505050565b600082601f8301126113db57600080fd5b611239838335602085016112d9565b600080604083850312156113fd57600080fd5b61140683611337565b915061141460208401611337565b90509250929050565b600080600080600060a0868803121561143557600080fd5b61143e86611337565b945061144c60208701611337565b9350604086013567ffffffffffffffff8082111561146957600080fd5b61147589838a01611353565b9450606088013591508082111561148b57600080fd5b61149789838a01611353565b935060808801359150808211156114ad57600080fd5b506114ba888289016113ca565b9150509295509295909350565b600080600080600060a086880312156114df57600080fd5b6114e886611337565b94506114f660208701611337565b93506040860135925060608601359150608086013567ffffffffffffffff81111561152057600080fd5b6114ba888289016113ca565b6000806040838503121561153f57600080fd5b61154883611337565b91506020830135801515811461155d57600080fd5b809150509250929050565b6000806040838503121561157b57600080fd5b61158483611337565b946020939093013593505050565b600080604083850312156115a557600080fd5b823567ffffffffffffffff808211156115bd57600080fd5b818501915085601f8301126115d157600080fd5b813560206115de826119e7565b6040516115eb8282611ac4565b8381528281019150858301600585901b870184018b101561160b57600080fd5b600096505b848710156116355761162181611337565b835260019690960195918301918301611610565b509650508601359250508082111561164c57600080fd5b5061165985828601611353565b9150509250929050565b60006020828403121561167557600080fd5b5035919050565b6000806040838503121561168f57600080fd5b8235915061141460208401611337565b6000602082840312156116b157600080fd5b813561123981611bf4565b6000602082840312156116ce57600080fd5b815161123981611bf4565b6000806000606084860312156116ee57600080fd5b8335925060208401359150604084013567ffffffffffffffff81111561171357600080fd5b8401601f8101861361172457600080fd5b611733868235602084016112d9565b9150509250925092565b600081518084526020808501945080840160005b8381101561176d57815187529582019590820190600101611751565b509495945050505050565b60008151808452611790816020860160208601611a42565b601f01601f19169290920160200192915050565b7f416363657373436f6e74726f6c3a206163636f756e74200000000000000000008152600083516117dc816017850160208801611a42565b7001034b99036b4b9b9b4b733903937b6329607d1b601791840191820152835161180d816028840160208801611a42565b01602801949350505050565b6001600160a01b0386811682528516602082015260a0604082018190526000906118459083018661173d565b8281036060840152611857818661173d565b9050828103608084015261186b8185611778565b98975050505050505050565b6001600160a01b03868116825285166020820152604081018490526060810183905260a0608082018190526000906118b190830184611778565b979650505050505050565b602081526000611239602083018461173d565b6040815260006118e2604083018561173d565b82810360208401526118f4818561173d565b95945050505050565b6020815260006112396020830184611778565b60208082526028908201527f455243313135353a204552433131353552656365697665722072656a656374656040820152676420746f6b656e7360c01b606082015260800190565b60208082526025908201527f455243313135353a207472616e7366657220746f20746865207a65726f206164604082015264647265737360d81b606082015260800190565b6020808252602a908201527f455243313135353a20696e73756666696369656e742062616c616e636520666f60408201526939103a3930b739b332b960b11b606082015260800190565b600067ffffffffffffffff821115611a0157611a01611b38565b5060051b60200190565b60008219821115611a1e57611a1e611b0c565b500190565b6000816000190483118215151615611a3d57611a3d611b0c565b500290565b60005b83811015611a5d578181015183820152602001611a45565b83811115611a6c576000848401525b50505050565b600081611a8157611a81611b0c565b506000190190565b600181811c90821680611a9d57607f821691505b60208210811415611abe57634e487b7160e01b600052602260045260246000fd5b50919050565b601f8201601f1916810167ffffffffffffffff81118282101715611aea57611aea611b38565b6040525050565b6000600019821415611b0557611b05611b0c565b5060010190565b634e487b7160e01b600052601160045260246000fd5b634e487b7160e01b600052603260045260246000fd5b634e487b7160e01b600052604160045260246000fd5b600060033d1115611b675760046000803e5060005160e01c5b90565b600060443d1015611b785790565b6040516003193d81016004833e81513d67ffffffffffffffff8160248401118184111715611ba857505050505090565b8285019150815181811115611bc05750505050505090565b843d8701016020828501011115611bda5750505050505090565b611be960208286010187611ac4565b509095945050505050565b6001600160e01b03198116811461093b57600080fdfea264697066735822122049d55dd8f011aa18dd522f5806a24401a0bb4ad4faea77b6104b6d0bb3a84da764736f6c63430008070033",
  "linkReferences": {},
  "deployedLinkReferences": {}
}