{
  "_format": "hh-sol-artifact-1",
  "contractName": "Avatar",
  "sourceName": "contracts/Avatar.sol",
  "abi": [
    {
      "inputs": [],
      "stateMutability": "nonpayable",
      "type": "constructor"
    },
    {
      "anonymous": false,
      "inputs": [
        {
          "indexed": true,
          "internalType": "address",
          "name": "account",
          "type": "address"
        },
        {
          "indexed": true,
          "internalType": "address",
          "name": "operator",
          "type": "address"
        },
        {
          "indexed": false,
          "internalType": "bool",
          "name": "approved",
          "type": "bool"
        }
      ],
      "name": "ApprovalForAll",
      "type": "event"
    },
    {
      "anonymous": false,
      "inputs": [
        {
          "indexed": true,
          "internalType": "address",
          "name": "previousOwner",
          "type": "address"
        },
        {
          "indexed": true,
          "internalType": "address",
          "name": "newOwner",
          "type": "address"
        }
      ],
      "name": "OwnershipTransferred",
      "type": "event"
    },
    {
      "anonymous": false,
      "inputs": [
        {
          "indexed": true,
          "internalType": "address",
          "name": "operator",
          "type": "address"
        },
        {
          "indexed": true,
          "internalType": "address",
          "name": "from",
          "type": "address"
        },
        {
          "indexed": true,
          "internalType": "address",
          "name": "to",
          "type": "address"
        },
        {
          "indexed": false,
          "internalType": "uint256[]",
          "name": "ids",
          "type": "uint256[]"
        },
        {
          "indexed": false,
          "internalType": "uint256[]",
          "name": "values",
          "type": "uint256[]"
        }
      ],
      "name": "TransferBatch",
      "type": "event"
    },
    {
      "anonymous": false,
      "inputs": [
        {
          "indexed": true,
          "internalType": "address",
          "name": "operator",
          "type": "address"
        },
        {
          "indexed": true,
          "internalType": "address",
          "name": "from",
          "type": "address"
        },
        {
          "indexed": true,
          "internalType": "address",
          "name": "to",
          "type": "address"
        },
        {
          "indexed": false,
          "internalType": "uint256",
          "name": "id",
          "type": "uint256"
        },
        {
          "indexed": false,
          "internalType": "uint256",
          "name": "value",
          "type": "uint256"
        }
      ],
      "name": "TransferSingle",
      "type": "event"
    },
    {
      "anonymous": false,
      "inputs": [
        {
          "indexed": false,
          "internalType": "string",
          "name": "value",
          "type": "string"
        },
        {
          "indexed": true,
          "internalType": "uint256",
          "name": "id",
          "type": "uint256"
        }
      ],
      "name": "URI",
      "type": "event"
    },
    {
      "inputs": [
        {
          "internalType": "address",
          "name": "account",
          "type": "address"
        },
        {
          "internalType": "uint256",
          "name": "id",
          "type": "uint256"
        }
      ],
      "name": "balanceOf",
      "outputs": [
        {
          "internalType": "uint256",
          "name": "",
          "type": "uint256"
        }
      ],
      "stateMutability": "view",
      "type": "function"
    },
    {
      "inputs": [
        {
          "internalType": "address[]",
          "name": "accounts",
          "type": "address[]"
        },
        {
          "internalType": "uint256[]",
          "name": "ids",
          "type": "uint256[]"
        }
      ],
      "name": "balanceOfBatch",
      "outputs": [
        {
          "internalType": "uint256[]",
          "name": "",
          "type": "uint256[]"
        }
      ],
      "stateMutability": "view",
      "type": "function"
    },
    {
      "inputs": [
        {
          "internalType": "address",
          "name": "account",
          "type": "address"
        },
        {
          "internalType": "address",
          "name": "operator",
          "type": "address"
        }
      ],
      "name": "isApprovedForAll",
      "outputs": [
        {
          "internalType": "bool",
          "name": "",
          "type": "bool"
        }
      ],
      "stateMutability": "view",
      "type": "function"
    },
    {
      "inputs": [
        {
          "internalType": "uint256",
          "name": "id",
          "type": "uint256"
        },
        {
          "internalType": "uint256",
          "name": "amount",
          "type": "uint256"
        },
        {
          "internalType": "string",
          "name": "uri",
          "type": "string"
        }
      ],
      "name": "mint",
      "outputs": [],
      "stateMutability": "payable",
      "type": "function"
    },
    {
      "inputs": [],
      "name": "owner",
      "outputs": [
        {
          "internalType": "address",
          "name": "",
          "type": "address"
        }
      ],
      "stateMutability": "view",
      "type": "function"
    },
    {
      "inputs": [],
      "name": "renounceOwnership",
      "outputs": [],
      "stateMutability": "nonpayable",
      "type": "function"
    },
    {
      "inputs": [
        {
          "internalType": "address",
          "name": "from",
          "type": "address"
        },
        {
          "internalType": "address",
          "name": "to",
          "type": "address"
        },
        {
          "internalType": "uint256[]",
          "name": "ids",
          "type": "uint256[]"
        },
        {
          "internalType": "uint256[]",
          "name": "amounts",
          "type": "uint256[]"
        },
        {
          "internalType": "bytes",
          "name": "data",
          "type": "bytes"
        }
      ],
      "name": "safeBatchTransferFrom",
      "outputs": [],
      "stateMutability": "nonpayable",
      "type": "function"
    },
    {
      "inputs": [
        {
          "internalType": "address",
          "name": "from",
          "type": "address"
        },
        {
          "internalType": "address",
          "name": "to",
          "type": "address"
        },
        {
          "internalType": "uint256",
          "name": "id",
          "type": "uint256"
        },
        {
          "internalType": "uint256",
          "name": "amount",
          "type": "uint256"
        },
        {
          "internalType": "bytes",
          "name": "data",
          "type": "bytes"
        }
      ],
      "name": "safeTransferFrom",
      "outputs": [],
      "stateMutability": "nonpayable",
      "type": "function"
    },
    {
      "inputs": [
        {
          "internalType": "address",
          "name": "operator",
          "type": "address"
        },
        {
          "internalType": "bool",
          "name": "approved",
          "type": "bool"
        }
      ],
      "name": "setApprovalForAll",
      "outputs": [],
      "stateMutability": "nonpayable",
      "type": "function"
    },
    {
      "inputs": [
        {
          "internalType": "string",
          "name": "newuri",
          "type": "string"
        }
      ],
      "name": "setURI",
      "outputs": [],
      "stateMutability": "nonpayable",
      "type": "function"
    },
    {
      "inputs": [
        {
          "internalType": "bytes4",
          "name": "interfaceId",
          "type": "bytes4"
        }
      ],
      "name": "supportsInterface",
      "outputs": [
        {
          "internalType": "bool",
          "name": "",
          "type": "bool"
        }
      ],
      "stateMutability": "view",
      "type": "function"
    },
    {
      "inputs": [
        {
          "internalType": "address",
          "name": "newOwner",
          "type": "address"
        }
      ],
      "name": "transferOwnership",
      "outputs": [],
      "stateMutability": "nonpayable",
      "type": "function"
    },
    {
      "inputs": [
        {
          "internalType": "uint256",
          "name": "",
          "type": "uint256"
        }
      ],
      "name": "uri",
      "outputs": [
        {
          "internalType": "string",
          "name": "",
          "type": "string"
        }
      ],
      "stateMutability": "view",
      "type": "function"
    },
    {
      "inputs": [],
      "name": "withdraw",
      "outputs": [],
      "stateMutability": "nonpayable",
      "type": "function"
    }
  ],
  "bytecode": "0x60e060405260326080908152606460a052609660c0526200002590600490600362000146565b5060408051606081018252600080825260208201819052918101919091526200005390600590600362000146565b506040805160608101825266b1a2bc2ec50000815267016345785d8a000060208201526658d15e1762800091810191909152620000959060069060036200019b565b50348015620000a357600080fd5b5060405180606001604052806022815260200162001ecf60229139620000c981620000db565b50620000d533620000f4565b620002b5565b8051620000f0906002906020840190620001e4565b5050565b600380546001600160a01b038381166001600160a01b0319831681179093556040519116919082907f8be0079c531659141344cd1fd0a4f28419497f9722a3daafe3b4186f6b6457e090600090a35050565b82805482825590600052602060002090810192821562000189579160200282015b8281111562000189578251829060ff1690559160200191906001019062000167565b506200019792915062000261565b5090565b82805482825590600052602060002090810192821562000189579160200282015b828111156200018957825182906001600160401b0316905591602001919060010190620001bc565b828054620001f29062000278565b90600052602060002090601f01602090048101928262000216576000855562000189565b82601f106200023157805160ff191683800117855562000189565b8280016001018555821562000189579182015b828111156200018957825182559160200191906001019062000244565b5b8082111562000197576000815560010162000262565b600181811c908216806200028d57607f821691505b60208210811415620002af57634e487b7160e01b600052602260045260246000fd5b50919050565b611c0a80620002c56000396000f3fe6080604052600436106100dc5760003560e01c8063715018a61161007f578063c6e64e5311610059578063c6e64e5314610252578063e985e9c514610265578063f242432a146102ae578063f2fde38b146102ce57600080fd5b8063715018a6146101f55780638da5cb5b1461020a578063a22cb4651461023257600080fd5b80630e89341c116100bb5780630e89341c146101665780632eb2c2d6146101935780633ccfd60b146101b35780634e1273f4146101c857600080fd5b8062fdd58e146100e157806301ffc9a71461011457806302fe530514610144575b600080fd5b3480156100ed57600080fd5b506101016100fc36600461157b565b6102ee565b6040519081526020015b60405180910390f35b34801561012057600080fd5b5061013461012f366004611676565b610385565b604051901515815260200161010b565b34801561015057600080fd5b5061016461015f3660046116b0565b6103d7565b005b34801561017257600080fd5b506101866101813660046116ed565b61040d565b60405161010b91906118c2565b34801561019f57600080fd5b506101646101ae366004611430565b6104a1565b3480156101bf57600080fd5b50610164610538565b3480156101d457600080fd5b506101e86101e33660046115a5565b6105da565b60405161010b9190611881565b34801561020157600080fd5b50610164610704565b34801561021657600080fd5b506003546040516001600160a01b03909116815260200161010b565b34801561023e57600080fd5b5061016461024d36600461153f565b61073a565b610164610260366004611706565b610749565b34801561027157600080fd5b506101346102803660046113fd565b6001600160a01b03918216600090815260016020908152604080832093909416825291909152205460ff1690565b3480156102ba57600080fd5b506101646102c93660046114da565b61093b565b3480156102da57600080fd5b506101646102e93660046113db565b6109c2565b60006001600160a01b03831661035f5760405162461bcd60e51b815260206004820152602b60248201527f455243313135353a2062616c616e636520717565727920666f7220746865207a60448201526a65726f206164647265737360a81b60648201526084015b60405180910390fd5b506000908152602081815260408083206001600160a01b03949094168352929052205490565b60006001600160e01b03198216636cdb3d1360e11b14806103b657506001600160e01b031982166303a24d0760e21b145b806103d157506301ffc9a760e01b6001600160e01b03198316145b92915050565b6003546001600160a01b031633146104015760405162461bcd60e51b8152600401610356906119ac565b61040a81610a5a565b50565b60606002805461041c90611a53565b80601f016020809104026020016040519081016040528092919081815260200182805461044890611a53565b80156104955780601f1061046a57610100808354040283529160200191610495565b820191906000526020600020905b81548152906001019060200180831161047857829003601f168201915b50505050509050919050565b6001600160a01b0385163314806104bd57506104bd8533610280565b6105245760405162461bcd60e51b815260206004820152603260248201527f455243313135353a207472616e736665722063616c6c6572206973206e6f74206044820152711bdddb995c881b9bdc88185c1c1c9bdd995960721b6064820152608401610356565b6105318585858585610a6d565b5050505050565b6003546001600160a01b031633146105625760405162461bcd60e51b8152600401610356906119ac565b600047116105a15760405162461bcd60e51b815260206004820152600c60248201526b042616c616e636520697320360a41b6044820152606401610356565b6003546040516001600160a01b03909116904780156108fc02916000818181858888f1935050505015801561040a573d6000803e3d6000fd5b6060815183511461063f5760405162461bcd60e51b815260206004820152602960248201527f455243313135353a206163636f756e747320616e6420696473206c656e677468604482015268040dad2e6dac2e8c6d60bb1b6064820152608401610356565b6000835167ffffffffffffffff81111561065b5761065b611b02565b604051908082528060200260200182016040528015610684578160200160208202803683370190505b50905060005b84518110156106fc576106cf8582815181106106a8576106a8611aec565b60200260200101518583815181106106c2576106c2611aec565b60200260200101516102ee565b8282815181106106e1576106e1611aec565b60209081029190910101526106f581611abb565b905061068a565b509392505050565b6003546001600160a01b0316331461072e5760405162461bcd60e51b8152600401610356906119ac565b6107386000610c4a565b565b610745338383610c9c565b5050565b6004548311156107915760405162461bcd60e51b8152602060048201526013602482015272151bdad95b88191bdcd95b89dd08195e1a5cdd606a1b6044820152606401610356565b600083116107d75760405162461bcd60e51b8152602060048201526013602482015272151bdad95b88191bdcd95b89dd08195e1a5cdd606a1b6044820152606401610356565b60006107e4600185611a3c565b9050600481815481106107f9576107f9611aec565b9060005260206000200154836005838154811061081857610818611aec565b906000526020600020015461082d9190611a05565b111561086f5760405162461bcd60e51b81526020600482015260116024820152704e6f7420656e6f75676820737570706c7960781b6044820152606401610356565b6006818154811061088257610882611aec565b9060005260206000200154836108989190611a1d565b3410156108df5760405162461bcd60e51b8152602060048201526015602482015274139bdd08195b9bdd59da08195d1a195c881cd95b9d605a1b6044820152606401610356565b6108e8826103d7565b61090333858560405180602001604052806000815250610d7d565b826005828154811061091757610917611aec565b9060005260206000200160008282546109309190611a05565b909155505050505050565b6001600160a01b03851633148061095757506109578533610280565b6109b55760405162461bcd60e51b815260206004820152602960248201527f455243313135353a2063616c6c6572206973206e6f74206f776e6572206e6f7260448201526808185c1c1c9bdd995960ba1b6064820152608401610356565b6105318585858585610e91565b6003546001600160a01b031633146109ec5760405162461bcd60e51b8152600401610356906119ac565b6001600160a01b038116610a515760405162461bcd60e51b815260206004820152602660248201527f4f776e61626c653a206e6577206f776e657220697320746865207a65726f206160448201526564647265737360d01b6064820152608401610356565b61040a81610c4a565b805161074590600290602084019061123b565b8151835114610acf5760405162461bcd60e51b815260206004820152602860248201527f455243313135353a2069647320616e6420616d6f756e7473206c656e677468206044820152670dad2e6dac2e8c6d60c31b6064820152608401610356565b6001600160a01b038416610af55760405162461bcd60e51b81526004016103569061191d565b3360005b8451811015610bdc576000858281518110610b1657610b16611aec565b602002602001015190506000858381518110610b3457610b34611aec565b602090810291909101810151600084815280835260408082206001600160a01b038e168352909352919091205490915081811015610b845760405162461bcd60e51b815260040161035690611962565b6000838152602081815260408083206001600160a01b038e8116855292528083208585039055908b16825281208054849290610bc1908490611a05565b9250508190555050505080610bd590611abb565b9050610af9565b50846001600160a01b0316866001600160a01b0316826001600160a01b03167f4a39dc06d4c0dbc64b70af90fd698a233a518aa5d07e595d983b8c0526c8f7fb8787604051610c2c929190611894565b60405180910390a4610c42818787878787610fbb565b505050505050565b600380546001600160a01b038381166001600160a01b0319831681179093556040519116919082907f8be0079c531659141344cd1fd0a4f28419497f9722a3daafe3b4186f6b6457e090600090a35050565b816001600160a01b0316836001600160a01b03161415610d105760405162461bcd60e51b815260206004820152602960248201527f455243313135353a2073657474696e6720617070726f76616c20737461747573604482015268103337b91039b2b63360b91b6064820152608401610356565b6001600160a01b03838116600081815260016020908152604080832094871680845294825291829020805460ff191686151590811790915591519182527f17307eab39ab6107e8899845ad3d59bd9653f200f220920489ca2b5937696c31910160405180910390a3505050565b6001600160a01b038416610ddd5760405162461bcd60e51b815260206004820152602160248201527f455243313135353a206d696e7420746f20746865207a65726f206164647265736044820152607360f81b6064820152608401610356565b336000610de985611126565b90506000610df685611126565b90506000868152602081815260408083206001600160a01b038b16845290915281208054879290610e28908490611a05565b909155505060408051878152602081018790526001600160a01b03808a1692600092918716917fc3d58168c5ae7397731d063d5bbf3d657854427343f4c083240f7aacaa2d0f62910160405180910390a4610e8883600089898989611171565b50505050505050565b6001600160a01b038416610eb75760405162461bcd60e51b81526004016103569061191d565b336000610ec385611126565b90506000610ed085611126565b90506000868152602081815260408083206001600160a01b038c16845290915290205485811015610f135760405162461bcd60e51b815260040161035690611962565b6000878152602081815260408083206001600160a01b038d8116855292528083208985039055908a16825281208054889290610f50908490611a05565b909155505060408051888152602081018890526001600160a01b03808b16928c821692918816917fc3d58168c5ae7397731d063d5bbf3d657854427343f4c083240f7aacaa2d0f62910160405180910390a4610fb0848a8a8a8a8a611171565b505050505050505050565b6001600160a01b0384163b15610c425760405163bc197c8160e01b81526001600160a01b0385169063bc197c8190610fff90899089908890889088906004016117de565b602060405180830381600087803b15801561101957600080fd5b505af1925050508015611049575060408051601f3d908101601f1916820190925261104691810190611693565b60015b6110f657611055611b18565b806308c379a0141561108f575061106a611b34565b806110755750611091565b8060405162461bcd60e51b815260040161035691906118c2565b505b60405162461bcd60e51b815260206004820152603460248201527f455243313135353a207472616e7366657220746f206e6f6e20455243313135356044820152732932b1b2b4bb32b91034b6b83632b6b2b73a32b960611b6064820152608401610356565b6001600160e01b0319811663bc197c8160e01b14610e885760405162461bcd60e51b8152600401610356906118d5565b6040805160018082528183019092526060916000919060208083019080368337019050509050828160008151811061116057611160611aec565b602090810291909101015292915050565b6001600160a01b0384163b15610c425760405163f23a6e6160e01b81526001600160a01b0385169063f23a6e61906111b5908990899088908890889060040161183c565b602060405180830381600087803b1580156111cf57600080fd5b505af19250505080156111ff575060408051601f3d908101601f191682019092526111fc91810190611693565b60015b61120b57611055611b18565b6001600160e01b0319811663f23a6e6160e01b14610e885760405162461bcd60e51b8152600401610356906118d5565b82805461124790611a53565b90600052602060002090601f01602090048101928261126957600085556112af565b82601f1061128257805160ff19168380011785556112af565b828001600101855582156112af579182015b828111156112af578251825591602001919060010190611294565b506112bb9291506112bf565b5090565b5b808211156112bb57600081556001016112c0565b80356001600160a01b03811681146112eb57600080fd5b919050565b600082601f83011261130157600080fd5b8135602061130e826119e1565b60405161131b8282611a8e565b8381528281019150858301600585901b8701840188101561133b57600080fd5b60005b8581101561135a5781358452928401929084019060010161133e565b5090979650505050505050565b600082601f83011261137857600080fd5b813567ffffffffffffffff81111561139257611392611b02565b6040516113a9601f8301601f191660200182611a8e565b8181528460208386010111156113be57600080fd5b816020850160208301376000918101602001919091529392505050565b6000602082840312156113ed57600080fd5b6113f6826112d4565b9392505050565b6000806040838503121561141057600080fd5b611419836112d4565b9150611427602084016112d4565b90509250929050565b600080600080600060a0868803121561144857600080fd5b611451866112d4565b945061145f602087016112d4565b9350604086013567ffffffffffffffff8082111561147c57600080fd5b61148889838a016112f0565b9450606088013591508082111561149e57600080fd5b6114aa89838a016112f0565b935060808801359150808211156114c057600080fd5b506114cd88828901611367565b9150509295509295909350565b600080600080600060a086880312156114f257600080fd5b6114fb866112d4565b9450611509602087016112d4565b93506040860135925060608601359150608086013567ffffffffffffffff81111561153357600080fd5b6114cd88828901611367565b6000806040838503121561155257600080fd5b61155b836112d4565b91506020830135801515811461157057600080fd5b809150509250929050565b6000806040838503121561158e57600080fd5b611597836112d4565b946020939093013593505050565b600080604083850312156115b857600080fd5b823567ffffffffffffffff808211156115d057600080fd5b818501915085601f8301126115e457600080fd5b813560206115f1826119e1565b6040516115fe8282611a8e565b8381528281019150858301600585901b870184018b101561161e57600080fd5b600096505b8487101561164857611634816112d4565b835260019690960195918301918301611623565b509650508601359250508082111561165f57600080fd5b5061166c858286016112f0565b9150509250929050565b60006020828403121561168857600080fd5b81356113f681611bbe565b6000602082840312156116a557600080fd5b81516113f681611bbe565b6000602082840312156116c257600080fd5b813567ffffffffffffffff8111156116d957600080fd5b6116e584828501611367565b949350505050565b6000602082840312156116ff57600080fd5b5035919050565b60008060006060848603121561171b57600080fd5b8335925060208401359150604084013567ffffffffffffffff81111561174057600080fd5b61174c86828701611367565b9150509250925092565b600081518084526020808501945080840160005b838110156117865781518752958201959082019060010161176a565b509495945050505050565b6000815180845260005b818110156117b75760208185018101518683018201520161179b565b818111156117c9576000602083870101525b50601f01601f19169290920160200192915050565b6001600160a01b0386811682528516602082015260a06040820181905260009061180a90830186611756565b828103606084015261181c8186611756565b905082810360808401526118308185611791565b98975050505050505050565b6001600160a01b03868116825285166020820152604081018490526060810183905260a06080820181905260009061187690830184611791565b979650505050505050565b6020815260006113f66020830184611756565b6040815260006118a76040830185611756565b82810360208401526118b98185611756565b95945050505050565b6020815260006113f66020830184611791565b60208082526028908201527f455243313135353a204552433131353552656365697665722072656a656374656040820152676420746f6b656e7360c01b606082015260800190565b60208082526025908201527f455243313135353a207472616e7366657220746f20746865207a65726f206164604082015264647265737360d81b606082015260800190565b6020808252602a908201527f455243313135353a20696e73756666696369656e742062616c616e636520666f60408201526939103a3930b739b332b960b11b606082015260800190565b6020808252818101527f4f776e61626c653a2063616c6c6572206973206e6f7420746865206f776e6572604082015260600190565b600067ffffffffffffffff8211156119fb576119fb611b02565b5060051b60200190565b60008219821115611a1857611a18611ad6565b500190565b6000816000190483118215151615611a3757611a37611ad6565b500290565b600082821015611a4e57611a4e611ad6565b500390565b600181811c90821680611a6757607f821691505b60208210811415611a8857634e487b7160e01b600052602260045260246000fd5b50919050565b601f8201601f1916810167ffffffffffffffff81118282101715611ab457611ab4611b02565b6040525050565b6000600019821415611acf57611acf611ad6565b5060010190565b634e487b7160e01b600052601160045260246000fd5b634e487b7160e01b600052603260045260246000fd5b634e487b7160e01b600052604160045260246000fd5b600060033d1115611b315760046000803e5060005160e01c5b90565b600060443d1015611b425790565b6040516003193d81016004833e81513d67ffffffffffffffff8160248401118184111715611b7257505050505090565b8285019150815181811115611b8a5750505050505090565b843d8701016020828501011115611ba45750505050505090565b611bb360208286010187611a8e565b509095945050505050565b6001600160e01b03198116811461040a57600080fdfea264697066735822122030fcdbf552085b148aa974976e55631d2000a067d5a7cab51221a22bf1f6c46864736f6c6343000807003368747470733a2f2f6170692e6176617461722e636f6d2f746f6b656e732f7b69647d",
  "linkReferences": {},
  "deployedLinkReferences": {}
}