{
  "_format": "hh-sol-artifact-1",
  "contractName": "Avatar",
  "sourceName": "contracts/Avatar.sol",
  "abi": [
    {
      "inputs": [],
      "stateMutability": "nonpayable",
      "type": "constructor"
    },
    {
      "anonymous": false,
      "inputs": [
        {
          "indexed": true,
          "internalType": "address",
          "name": "account",
          "type": "address"
        },
        {
          "indexed": true,
          "internalType": "address",
          "name": "operator",
          "type": "address"
        },
        {
          "indexed": false,
          "internalType": "bool",
          "name": "approved",
          "type": "bool"
        }
      ],
      "name": "ApprovalForAll",
      "type": "event"
    },
    {
      "anonymous": false,
      "inputs": [
        {
          "indexed": true,
          "internalType": "address",
          "name": "previousOwner",
          "type": "address"
        },
        {
          "indexed": true,
          "internalType": "address",
          "name": "newOwner",
          "type": "address"
        }
      ],
      "name": "OwnershipTransferred",
      "type": "event"
    },
    {
      "anonymous": false,
      "inputs": [
        {
          "indexed": true,
          "internalType": "address",
          "name": "operator",
          "type": "address"
        },
        {
          "indexed": true,
          "internalType": "address",
          "name": "from",
          "type": "address"
        },
        {
          "indexed": true,
          "internalType": "address",
          "name": "to",
          "type": "address"
        },
        {
          "indexed": false,
          "internalType": "uint256[]",
          "name": "ids",
          "type": "uint256[]"
        },
        {
          "indexed": false,
          "internalType": "uint256[]",
          "name": "values",
          "type": "uint256[]"
        }
      ],
      "name": "TransferBatch",
      "type": "event"
    },
    {
      "anonymous": false,
      "inputs": [
        {
          "indexed": true,
          "internalType": "address",
          "name": "operator",
          "type": "address"
        },
        {
          "indexed": true,
          "internalType": "address",
          "name": "from",
          "type": "address"
        },
        {
          "indexed": true,
          "internalType": "address",
          "name": "to",
          "type": "address"
        },
        {
          "indexed": false,
          "internalType": "uint256",
          "name": "id",
          "type": "uint256"
        },
        {
          "indexed": false,
          "internalType": "uint256",
          "name": "value",
          "type": "uint256"
        }
      ],
      "name": "TransferSingle",
      "type": "event"
    },
    {
      "anonymous": false,
      "inputs": [
        {
          "indexed": false,
          "internalType": "string",
          "name": "value",
          "type": "string"
        },
        {
          "indexed": true,
          "internalType": "uint256",
          "name": "id",
          "type": "uint256"
        }
      ],
      "name": "URI",
      "type": "event"
    },
    {
      "inputs": [],
      "name": "CHARIZARD",
      "outputs": [
        {
          "internalType": "uint256",
          "name": "",
          "type": "uint256"
        }
      ],
      "stateMutability": "view",
      "type": "function"
    },
    {
      "inputs": [],
      "name": "CHARMANDER",
      "outputs": [
        {
          "internalType": "uint256",
          "name": "",
          "type": "uint256"
        }
      ],
      "stateMutability": "view",
      "type": "function"
    },
    {
      "inputs": [],
      "name": "IVYSAUR",
      "outputs": [
        {
          "internalType": "uint256",
          "name": "",
          "type": "uint256"
        }
      ],
      "stateMutability": "view",
      "type": "function"
    },
    {
      "inputs": [],
      "name": "VENUSAUR",
      "outputs": [
        {
          "internalType": "uint256",
          "name": "",
          "type": "uint256"
        }
      ],
      "stateMutability": "view",
      "type": "function"
    },
    {
      "inputs": [
        {
          "internalType": "address",
          "name": "account",
          "type": "address"
        },
        {
          "internalType": "uint256",
          "name": "id",
          "type": "uint256"
        }
      ],
      "name": "balanceOf",
      "outputs": [
        {
          "internalType": "uint256",
          "name": "",
          "type": "uint256"
        }
      ],
      "stateMutability": "view",
      "type": "function"
    },
    {
      "inputs": [
        {
          "internalType": "address[]",
          "name": "accounts",
          "type": "address[]"
        },
        {
          "internalType": "uint256[]",
          "name": "ids",
          "type": "uint256[]"
        }
      ],
      "name": "balanceOfBatch",
      "outputs": [
        {
          "internalType": "uint256[]",
          "name": "",
          "type": "uint256[]"
        }
      ],
      "stateMutability": "view",
      "type": "function"
    },
    {
      "inputs": [
        {
          "internalType": "address",
          "name": "account",
          "type": "address"
        },
        {
          "internalType": "address",
          "name": "operator",
          "type": "address"
        }
      ],
      "name": "isApprovedForAll",
      "outputs": [
        {
          "internalType": "bool",
          "name": "",
          "type": "bool"
        }
      ],
      "stateMutability": "view",
      "type": "function"
    },
    {
      "inputs": [],
      "name": "owner",
      "outputs": [
        {
          "internalType": "address",
          "name": "",
          "type": "address"
        }
      ],
      "stateMutability": "view",
      "type": "function"
    },
    {
      "inputs": [],
      "name": "renounceOwnership",
      "outputs": [],
      "stateMutability": "nonpayable",
      "type": "function"
    },
    {
      "inputs": [
        {
          "internalType": "address",
          "name": "from",
          "type": "address"
        },
        {
          "internalType": "address",
          "name": "to",
          "type": "address"
        },
        {
          "internalType": "uint256[]",
          "name": "ids",
          "type": "uint256[]"
        },
        {
          "internalType": "uint256[]",
          "name": "amounts",
          "type": "uint256[]"
        },
        {
          "internalType": "bytes",
          "name": "data",
          "type": "bytes"
        }
      ],
      "name": "safeBatchTransferFrom",
      "outputs": [],
      "stateMutability": "nonpayable",
      "type": "function"
    },
    {
      "inputs": [
        {
          "internalType": "address",
          "name": "from",
          "type": "address"
        },
        {
          "internalType": "address",
          "name": "to",
          "type": "address"
        },
        {
          "internalType": "uint256",
          "name": "id",
          "type": "uint256"
        },
        {
          "internalType": "uint256",
          "name": "amount",
          "type": "uint256"
        },
        {
          "internalType": "bytes",
          "name": "data",
          "type": "bytes"
        }
      ],
      "name": "safeTransferFrom",
      "outputs": [],
      "stateMutability": "nonpayable",
      "type": "function"
    },
    {
      "inputs": [
        {
          "internalType": "address",
          "name": "operator",
          "type": "address"
        },
        {
          "internalType": "bool",
          "name": "approved",
          "type": "bool"
        }
      ],
      "name": "setApprovalForAll",
      "outputs": [],
      "stateMutability": "nonpayable",
      "type": "function"
    },
    {
      "inputs": [
        {
          "internalType": "uint256",
          "name": "tokenId",
          "type": "uint256"
        },
        {
          "internalType": "string",
          "name": "uri",
          "type": "string"
        }
      ],
      "name": "setTokenUri",
      "outputs": [],
      "stateMutability": "nonpayable",
      "type": "function"
    },
    {
      "inputs": [
        {
          "internalType": "bytes4",
          "name": "interfaceId",
          "type": "bytes4"
        }
      ],
      "name": "supportsInterface",
      "outputs": [
        {
          "internalType": "bool",
          "name": "",
          "type": "bool"
        }
      ],
      "stateMutability": "view",
      "type": "function"
    },
    {
      "inputs": [
        {
          "internalType": "address",
          "name": "newOwner",
          "type": "address"
        }
      ],
      "name": "transferOwnership",
      "outputs": [],
      "stateMutability": "nonpayable",
      "type": "function"
    },
    {
      "inputs": [
        {
          "internalType": "uint256",
          "name": "tokenId",
          "type": "uint256"
        }
      ],
      "name": "uri",
      "outputs": [
        {
          "internalType": "string",
          "name": "",
          "type": "string"
        }
      ],
      "stateMutability": "pure",
      "type": "function"
    }
  ],
  "bytecode": "0x60806040523480156200001157600080fd5b506040518060800160405280605a815260200162002135605a91396200003781620000dd565b506200004333620000f6565b620000683360006064604051806020016040528060008152506200014860201b60201c565b6200008d3360016064604051806020016040528060008152506200014860201b60201c565b620000b23360026064604051806020016040528060008152506200014860201b60201c565b620000d73360036064604051806020016040528060008152506200014860201b60201c565b62000792565b8051620000f2906002906020840190620004ac565b5050565b600380546001600160a01b038381166001600160a01b0319831681179093556040519116919082907f8be0079c531659141344cd1fd0a4f28419497f9722a3daafe3b4186f6b6457e090600090a35050565b6001600160a01b038416620001ae5760405162461bcd60e51b815260206004820152602160248201527f455243313135353a206d696e7420746f20746865207a65726f206164647265736044820152607360f81b60648201526084015b60405180910390fd5b336000620001bc856200026a565b90506000620001cb856200026a565b90506000868152602081815260408083206001600160a01b038b16845290915281208054879290620001ff90849062000631565b909155505060408051878152602081018790526001600160a01b03808a1692600092918716917fc3d58168c5ae7397731d063d5bbf3d657854427343f4c083240f7aacaa2d0f62910160405180910390a46200026183600089898989620002c0565b50505050505050565b60408051600180825281830190925260609160009190602080830190803683370190505090508281600081518110620002a757620002a7620006d0565b602090810291909101015292915050565b505050505050565b620002df846001600160a01b03166200049d60201b6200075c1760201c565b15620002b85760405163f23a6e6160e01b81526001600160a01b0385169063f23a6e61906200031b9089908990889088908890600401620005d5565b602060405180830381600087803b1580156200033657600080fd5b505af192505050801562000369575060408051601f3d908101601f19168201909252620003669181019062000552565b60015b6200042a5762000378620006e6565b806308c379a01415620003b957506200039062000703565b806200039d5750620003bb565b8060405162461bcd60e51b8152600401620001a591906200061c565b505b60405162461bcd60e51b815260206004820152603460248201527f455243313135353a207472616e7366657220746f206e6f6e204552433131353560448201527f526563656976657220696d706c656d656e7465720000000000000000000000006064820152608401620001a5565b6001600160e01b0319811663f23a6e6160e01b14620002615760405162461bcd60e51b815260206004820152602860248201527f455243313135353a204552433131353552656365697665722072656a656374656044820152676420746f6b656e7360c01b6064820152608401620001a5565b6001600160a01b03163b151590565b828054620004ba9062000658565b90600052602060002090601f016020900481019282620004de576000855562000529565b82601f10620004f957805160ff191683800117855562000529565b8280016001018555821562000529579182015b82811115620005295782518255916020019190600101906200050c565b50620005379291506200053b565b5090565b5b808211156200053757600081556001016200053c565b6000602082840312156200056557600080fd5b81516001600160e01b0319811681146200057e57600080fd5b9392505050565b6000815180845260005b81811015620005ad576020818501810151868301820152016200058f565b81811115620005c0576000602083870101525b50601f01601f19169290920160200192915050565b6001600160a01b03868116825285166020820152604081018490526060810183905260a060808201819052600090620006119083018462000585565b979650505050505050565b6020815260006200057e602083018462000585565b600082198211156200065357634e487b7160e01b600052601160045260246000fd5b500190565b600181811c908216806200066d57607f821691505b602082108114156200068f57634e487b7160e01b600052602260045260246000fd5b50919050565b601f8201601f191681016001600160401b0381118282101715620006c957634e487b7160e01b600052604160045260246000fd5b6040525050565b634e487b7160e01b600052603260045260246000fd5b600060033d1115620007005760046000803e5060005160e01c5b90565b600060443d1015620007125790565b6040516003193d81016004833e81513d6001600160401b0380831160248401831017156200074257505050505090565b82850191508151818111156200075b5750505050505090565b843d8701016020828501011115620007765750505050505090565b620007876020828601018762000695565b509095945050505050565b61199380620007a26000396000f3fe608060405234801561001057600080fd5b50600436106100ff5760003560e01c80638da5cb5b11610097578063a8b3c1a111610066578063a8b3c1a114610203578063e985e9c51461020b578063f242432a14610247578063f2fde38b1461025a57600080fd5b80638da5cb5b146101c5578063904c18fc146101e05780639e1f5153146101e8578063a22cb465146101f057600080fd5b80634e1273f4116100d35780634e1273f41461018257806357f7789e146101a2578063715018a6146101b55780637f7934b1146101bd57600080fd5b8062fdd58e1461010457806301ffc9a71461012a5780630e89341c1461014d5780632eb2c2d61461016d575b600080fd5b61011761011236600461127e565b61026d565b6040519081526020015b60405180910390f35b61013d610138366004611379565b610304565b6040519015158152602001610121565b61016061015b3660046113b3565b610356565b60405161012191906115fc565b61018061017b366004611133565b610387565b005b6101956101903660046112a8565b61041e565b60405161012191906115bb565b6101806101b03660046113cc565b610548565b6101806105f5565b610117600081565b6003546040516001600160a01b039091168152602001610121565b610117600381565b610117600281565b6101806101fe366004611242565b61062b565b610117600181565b61013d610219366004611100565b6001600160a01b03918216600090815260016020908152604080832093909416825291909152205460ff1690565b6101806102553660046111dd565b61063a565b6101806102683660046110e5565b6106c1565b60006001600160a01b0383166102de5760405162461bcd60e51b815260206004820152602b60248201527f455243313135353a2062616c616e636520717565727920666f7220746865207a60448201526a65726f206164647265737360a81b60648201526084015b60405180910390fd5b506000908152602081815260408083206001600160a01b03949094168352929052205490565b60006001600160e01b03198216636cdb3d1360e11b148061033557506001600160e01b031982166303a24d0760e21b145b8061035057506301ffc9a760e01b6001600160e01b03198316145b92915050565b60606103618261076b565b6040516020016103719190611484565b6040516020818303038152906040529050919050565b6001600160a01b0385163314806103a357506103a38533610219565b61040a5760405162461bcd60e51b815260206004820152603260248201527f455243313135353a207472616e736665722063616c6c6572206973206e6f74206044820152711bdddb995c881b9bdc88185c1c1c9bdd995960721b60648201526084016102d5565b6104178585858585610871565b5050505050565b606081518351146104835760405162461bcd60e51b815260206004820152602960248201527f455243313135353a206163636f756e747320616e6420696473206c656e677468604482015268040dad2e6dac2e8c6d60bb1b60648201526084016102d5565b6000835167ffffffffffffffff81111561049f5761049f61188b565b6040519080825280602002602001820160405280156104c8578160200160208202803683370190505b50905060005b8451811015610540576105138582815181106104ec576104ec611875565b602002602001015185838151811061050657610506611875565b602002602001015161026d565b82828151811061052557610525611875565b60209081029190910101526105398161181a565b90506104ce565b509392505050565b6003546001600160a01b031633146105725760405162461bcd60e51b81526004016102d5906116e6565b6000828152600460205260409020805461058b906117b2565b1590506105d15760405162461bcd60e51b815260206004820152601460248201527343616e6e6f74207365742075726920747769636560601b60448201526064016102d5565b600082815260046020908152604090912082516105f092840190610f34565b505050565b6003546001600160a01b0316331461061f5760405162461bcd60e51b81526004016102d5906116e6565b6106296000610a4e565b565b610636338383610aa0565b5050565b6001600160a01b03851633148061065657506106568533610219565b6106b45760405162461bcd60e51b815260206004820152602960248201527f455243313135353a2063616c6c6572206973206e6f74206f776e6572206e6f7260448201526808185c1c1c9bdd995960ba1b60648201526084016102d5565b6104178585858585610b81565b6003546001600160a01b031633146106eb5760405162461bcd60e51b81526004016102d5906116e6565b6001600160a01b0381166107505760405162461bcd60e51b815260206004820152602660248201527f4f776e61626c653a206e6577206f776e657220697320746865207a65726f206160448201526564647265737360d01b60648201526084016102d5565b61075981610a4e565b50565b6001600160a01b03163b151590565b60608161078f5750506040805180820190915260018152600360fc1b602082015290565b8160005b81156107b957806107a38161181a565b91506107b29050600a83611757565b9150610793565b60008167ffffffffffffffff8111156107d4576107d461188b565b6040519080825280601f01601f1916602001820160405280156107fe576020820181803683370190505b5090505b84156108695761081360018361176b565b9150610820600a86611835565b61082b90603061173f565b60f81b81838151811061084057610840611875565b60200101906001600160f81b031916908160001a905350610862600a86611757565b9450610802565b949350505050565b81518351146108d35760405162461bcd60e51b815260206004820152602860248201527f455243313135353a2069647320616e6420616d6f756e7473206c656e677468206044820152670dad2e6dac2e8c6d60c31b60648201526084016102d5565b6001600160a01b0384166108f95760405162461bcd60e51b81526004016102d590611657565b3360005b84518110156109e057600085828151811061091a5761091a611875565b60200260200101519050600085838151811061093857610938611875565b602090810291909101810151600084815280835260408082206001600160a01b038e1683529093529190912054909150818110156109885760405162461bcd60e51b81526004016102d59061169c565b6000838152602081815260408083206001600160a01b038e8116855292528083208585039055908b168252812080548492906109c590849061173f565b92505081905550505050806109d99061181a565b90506108fd565b50846001600160a01b0316866001600160a01b0316826001600160a01b03167f4a39dc06d4c0dbc64b70af90fd698a233a518aa5d07e595d983b8c0526c8f7fb8787604051610a309291906115ce565b60405180910390a4610a46818787878787610cab565b505050505050565b600380546001600160a01b038381166001600160a01b0319831681179093556040519116919082907f8be0079c531659141344cd1fd0a4f28419497f9722a3daafe3b4186f6b6457e090600090a35050565b816001600160a01b0316836001600160a01b03161415610b145760405162461bcd60e51b815260206004820152602960248201527f455243313135353a2073657474696e6720617070726f76616c20737461747573604482015268103337b91039b2b63360b91b60648201526084016102d5565b6001600160a01b03838116600081815260016020908152604080832094871680845294825291829020805460ff191686151590811790915591519182527f17307eab39ab6107e8899845ad3d59bd9653f200f220920489ca2b5937696c31910160405180910390a3505050565b6001600160a01b038416610ba75760405162461bcd60e51b81526004016102d590611657565b336000610bb385610e1f565b90506000610bc085610e1f565b90506000868152602081815260408083206001600160a01b038c16845290915290205485811015610c035760405162461bcd60e51b81526004016102d59061169c565b6000878152602081815260408083206001600160a01b038d8116855292528083208985039055908a16825281208054889290610c4090849061173f565b909155505060408051888152602081018890526001600160a01b03808b16928c821692918816917fc3d58168c5ae7397731d063d5bbf3d657854427343f4c083240f7aacaa2d0f62910160405180910390a4610ca0848a8a8a8a8a610e6a565b505050505050505050565b6001600160a01b0384163b15610a465760405163bc197c8160e01b81526001600160a01b0385169063bc197c8190610cef9089908990889088908890600401611518565b602060405180830381600087803b158015610d0957600080fd5b505af1925050508015610d39575060408051601f3d908101601f19168201909252610d3691810190611396565b60015b610de657610d456118a1565b806308c379a01415610d7f5750610d5a6118bd565b80610d655750610d81565b8060405162461bcd60e51b81526004016102d591906115fc565b505b60405162461bcd60e51b815260206004820152603460248201527f455243313135353a207472616e7366657220746f206e6f6e20455243313135356044820152732932b1b2b4bb32b91034b6b83632b6b2b73a32b960611b60648201526084016102d5565b6001600160e01b0319811663bc197c8160e01b14610e165760405162461bcd60e51b81526004016102d59061160f565b50505050505050565b60408051600180825281830190925260609160009190602080830190803683370190505090508281600081518110610e5957610e59611875565b602090810291909101015292915050565b6001600160a01b0384163b15610a465760405163f23a6e6160e01b81526001600160a01b0385169063f23a6e6190610eae9089908990889088908890600401611576565b602060405180830381600087803b158015610ec857600080fd5b505af1925050508015610ef8575060408051601f3d908101601f19168201909252610ef591810190611396565b60015b610f0457610d456118a1565b6001600160e01b0319811663f23a6e6160e01b14610e165760405162461bcd60e51b81526004016102d59061160f565b828054610f40906117b2565b90600052602060002090601f016020900481019282610f625760008555610fa8565b82601f10610f7b57805160ff1916838001178555610fa8565b82800160010185558215610fa8579182015b82811115610fa8578251825591602001919060010190610f8d565b50610fb4929150610fb8565b5090565b5b80821115610fb45760008155600101610fb9565b600067ffffffffffffffff831115610fe757610fe761188b565b604051610ffe601f8501601f1916602001826117ed565b80915083815284848401111561101357600080fd5b83836020830137600060208583010152509392505050565b80356001600160a01b038116811461104257600080fd5b919050565b600082601f83011261105857600080fd5b813560206110658261171b565b60405161107282826117ed565b8381528281019150858301600585901b8701840188101561109257600080fd5b60005b858110156110b157813584529284019290840190600101611095565b5090979650505050505050565b600082601f8301126110cf57600080fd5b6110de83833560208501610fcd565b9392505050565b6000602082840312156110f757600080fd5b6110de8261102b565b6000806040838503121561111357600080fd5b61111c8361102b565b915061112a6020840161102b565b90509250929050565b600080600080600060a0868803121561114b57600080fd5b6111548661102b565b94506111626020870161102b565b9350604086013567ffffffffffffffff8082111561117f57600080fd5b61118b89838a01611047565b945060608801359150808211156111a157600080fd5b6111ad89838a01611047565b935060808801359150808211156111c357600080fd5b506111d0888289016110be565b9150509295509295909350565b600080600080600060a086880312156111f557600080fd5b6111fe8661102b565b945061120c6020870161102b565b93506040860135925060608601359150608086013567ffffffffffffffff81111561123657600080fd5b6111d0888289016110be565b6000806040838503121561125557600080fd5b61125e8361102b565b91506020830135801515811461127357600080fd5b809150509250929050565b6000806040838503121561129157600080fd5b61129a8361102b565b946020939093013593505050565b600080604083850312156112bb57600080fd5b823567ffffffffffffffff808211156112d357600080fd5b818501915085601f8301126112e757600080fd5b813560206112f48261171b565b60405161130182826117ed565b8381528281019150858301600585901b870184018b101561132157600080fd5b600096505b8487101561134b576113378161102b565b835260019690960195918301918301611326565b509650508601359250508082111561136257600080fd5b5061136f85828601611047565b9150509250929050565b60006020828403121561138b57600080fd5b81356110de81611947565b6000602082840312156113a857600080fd5b81516110de81611947565b6000602082840312156113c557600080fd5b5035919050565b600080604083850312156113df57600080fd5b82359150602083013567ffffffffffffffff8111156113fd57600080fd5b8301601f8101851361140e57600080fd5b61136f85823560208401610fcd565b600081518084526020808501945080840160005b8381101561144d57815187529582019590820190600101611431565b509495945050505050565b60008151808452611470816020860160208601611782565b601f01601f19169290920160200192915050565b7f68747470733a2f2f676174657761792e70696e6174612e636c6f75642f69706681527f732f516d536835577a377962786f7953744e38584167484657466e664650536560208201527054725761583472364759314e575779562f60781b6040820152600082516114fc816051850160208701611782565b64173539b7b760d91b6051939091019283015250605601919050565b6001600160a01b0386811682528516602082015260a0604082018190526000906115449083018661141d565b8281036060840152611556818661141d565b9050828103608084015261156a8185611458565b98975050505050505050565b6001600160a01b03868116825285166020820152604081018490526060810183905260a0608082018190526000906115b090830184611458565b979650505050505050565b6020815260006110de602083018461141d565b6040815260006115e1604083018561141d565b82810360208401526115f3818561141d565b95945050505050565b6020815260006110de6020830184611458565b60208082526028908201527f455243313135353a204552433131353552656365697665722072656a656374656040820152676420746f6b656e7360c01b606082015260800190565b60208082526025908201527f455243313135353a207472616e7366657220746f20746865207a65726f206164604082015264647265737360d81b606082015260800190565b6020808252602a908201527f455243313135353a20696e73756666696369656e742062616c616e636520666f60408201526939103a3930b739b332b960b11b606082015260800190565b6020808252818101527f4f776e61626c653a2063616c6c6572206973206e6f7420746865206f776e6572604082015260600190565b600067ffffffffffffffff8211156117355761173561188b565b5060051b60200190565b6000821982111561175257611752611849565b500190565b6000826117665761176661185f565b500490565b60008282101561177d5761177d611849565b500390565b60005b8381101561179d578181015183820152602001611785565b838111156117ac576000848401525b50505050565b600181811c908216806117c657607f821691505b602082108114156117e757634e487b7160e01b600052602260045260246000fd5b50919050565b601f8201601f1916810167ffffffffffffffff811182821017156118135761181361188b565b6040525050565b600060001982141561182e5761182e611849565b5060010190565b6000826118445761184461185f565b500690565b634e487b7160e01b600052601160045260246000fd5b634e487b7160e01b600052601260045260246000fd5b634e487b7160e01b600052603260045260246000fd5b634e487b7160e01b600052604160045260246000fd5b600060033d11156118ba5760046000803e5060005160e01c5b90565b600060443d10156118cb5790565b6040516003193d81016004833e81513d67ffffffffffffffff81602484011181841117156118fb57505050505090565b82850191508151818111156119135750505050505090565b843d870101602082850101111561192d5750505050505090565b61193c602082860101876117ed565b509095945050505050565b6001600160e01b03198116811461075957600080fdfea26469706673582212200cb8ee84a994f83ecefa6df994774b0c7b29a7e9530d70fc342d7e6c318cb53464736f6c6343000807003368747470733a2f2f676174657761792e70696e6174612e636c6f75642f697066732f516d536835577a377962786f7953744e38584167484657466e664650536554725761583472364759314e575779562f7b69647d2e6a736f6e",
  "linkReferences": {},
  "deployedLinkReferences": {}
}